{
  "_format": "hh-sol-artifact-1",
  "contractName": "Market",
  "sourceName": "contracts/Market.sol",
  "abi": [
    {
      "anonymous": false,
      "inputs": [
        {
          "indexed": true,
          "internalType": "uint256",
          "name": "itemId",
          "type": "uint256"
        },
        {
          "indexed": true,
          "internalType": "address",
          "name": "nftContract",
          "type": "address"
        },
        {
          "indexed": true,
          "internalType": "uint256",
          "name": "tokenId",
          "type": "uint256"
        },
        {
          "indexed": false,
          "internalType": "address",
          "name": "seller",
          "type": "address"
        },
        {
          "indexed": false,
          "internalType": "address",
          "name": "owner",
          "type": "address"
        },
        {
          "indexed": false,
          "internalType": "uint256",
          "name": "price",
          "type": "uint256"
        }
      ],
      "name": "MarketAuctionItemCreated",
      "type": "event"
    },
    {
      "anonymous": false,
      "inputs": [
        {
          "indexed": true,
          "internalType": "uint256",
          "name": "itemId",
          "type": "uint256"
        },
        {
          "indexed": true,
          "internalType": "address",
          "name": "bidder",
          "type": "address"
        },
        {
          "indexed": false,
          "internalType": "uint256",
          "name": "amount",
          "type": "uint256"
        }
      ],
      "name": "MarketItemBid",
      "type": "event"
    },
    {
      "anonymous": false,
      "inputs": [
        {
          "indexed": true,
          "internalType": "uint256",
          "name": "itemId",
          "type": "uint256"
        },
        {
          "indexed": true,
          "internalType": "address",
          "name": "nftContract",
          "type": "address"
        },
        {
          "indexed": true,
          "internalType": "uint256",
          "name": "tokenId",
          "type": "uint256"
        },
        {
          "indexed": false,
          "internalType": "address",
          "name": "seller",
          "type": "address"
        },
        {
          "indexed": false,
          "internalType": "address",
          "name": "owner",
          "type": "address"
        },
        {
          "indexed": false,
          "internalType": "uint256",
          "name": "price",
          "type": "uint256"
        }
      ],
      "name": "MarketItemCreated",
      "type": "event"
    },
    {
      "anonymous": false,
      "inputs": [
        {
          "indexed": false,
          "internalType": "uint256",
          "name": "itemId",
          "type": "uint256"
        },
        {
          "indexed": true,
          "internalType": "address",
          "name": "nftContract",
          "type": "address"
        },
        {
          "indexed": true,
          "internalType": "address",
          "name": "seller",
          "type": "address"
        },
        {
          "indexed": true,
          "internalType": "address",
          "name": "newOwner",
          "type": "address"
        }
      ],
      "name": "MarketItemSold",
      "type": "event"
    },
    {
      "anonymous": false,
      "inputs": [
        {
          "indexed": false,
          "internalType": "uint256",
          "name": "itemId",
          "type": "uint256"
        }
      ],
      "name": "MarketItemUnlisted",
      "type": "event"
    },
    {
      "inputs": [],
      "name": "ERC2981INTERFACE",
      "outputs": [
        {
          "internalType": "bytes4",
          "name": "",
          "type": "bytes4"
        }
      ],
      "stateMutability": "view",
      "type": "function"
    },
    {
      "inputs": [],
      "name": "ERC721INTERFACE",
      "outputs": [
        {
          "internalType": "bytes4",
          "name": "",
          "type": "bytes4"
        }
      ],
      "stateMutability": "view",
      "type": "function"
    },
    {
      "inputs": [
        {
          "internalType": "uint256",
          "name": "itemId",
          "type": "uint256"
        }
      ],
      "name": "createAuctionBid",
      "outputs": [],
      "stateMutability": "payable",
      "type": "function"
    },
    {
      "inputs": [
        {
          "internalType": "address",
          "name": "nftContract",
          "type": "address"
        },
        {
          "internalType": "uint256",
          "name": "itemId",
          "type": "uint256"
        }
      ],
      "name": "createAuctionSale",
      "outputs": [],
      "stateMutability": "payable",
      "type": "function"
    },
    {
      "inputs": [
        {
          "internalType": "address",
          "name": "nftContract",
          "type": "address"
        },
        {
          "internalType": "uint256",
          "name": "tokenId",
          "type": "uint256"
        },
        {
          "internalType": "uint256",
          "name": "floorPrice",
          "type": "uint256"
        },
        {
          "internalType": "uint256",
          "name": "auctionTime",
          "type": "uint256"
        }
      ],
      "name": "createMarketAuction",
      "outputs": [],
      "stateMutability": "payable",
      "type": "function"
    },
    {
      "inputs": [
        {
          "internalType": "address",
          "name": "nftContract",
          "type": "address"
        },
        {
          "internalType": "uint256",
          "name": "tokenId",
          "type": "uint256"
        },
        {
          "internalType": "uint256",
          "name": "price",
          "type": "uint256"
        }
      ],
      "name": "createMarketItem",
      "outputs": [],
      "stateMutability": "payable",
      "type": "function"
    },
    {
      "inputs": [
        {
          "internalType": "address",
          "name": "nftContract",
          "type": "address"
        },
        {
          "internalType": "uint256",
          "name": "itemId",
          "type": "uint256"
        }
      ],
      "name": "createMarketSale",
      "outputs": [],
      "stateMutability": "payable",
      "type": "function"
    },
    {
      "inputs": [],
      "name": "getMarketItem",
      "outputs": [
        {
          "components": [
            {
              "internalType": "uint256",
              "name": "itemId",
              "type": "uint256"
            },
            {
              "internalType": "address",
              "name": "nftContract",
              "type": "address"
            },
            {
              "internalType": "uint256",
              "name": "tokenId",
              "type": "uint256"
            },
            {
              "internalType": "address payable",
              "name": "creator",
              "type": "address"
            },
            {
              "internalType": "address payable",
              "name": "seller",
              "type": "address"
            },
            {
              "internalType": "address payable",
              "name": "owner",
              "type": "address"
            },
            {
              "internalType": "uint256",
              "name": "price",
              "type": "uint256"
            },
            {
              "internalType": "uint256",
              "name": "royalty",
              "type": "uint256"
            },
            {
              "internalType": "bool",
              "name": "isAuction",
              "type": "bool"
            },
            {
              "internalType": "bool",
              "name": "sold",
              "type": "bool"
            }
          ],
          "internalType": "struct Market.MarketItem",
          "name": "",
          "type": "tuple"
        }
      ],
      "stateMutability": "view",
      "type": "function"
    }
  ],
  "bytecode": "0x608060405234801561001057600080fd5b506001600055611e84806100256000396000f3fe60806040526004361061007b5760003560e01c806358eb2df51161004e57806358eb2df5146102fb57806362822f801461030e578063be87e08114610321578063c23b139e1461033457600080fd5b806307cb1a6e146100805780631879c750146100b957806342199f88146100d457806348b7e2b7146102e6575b600080fd5b34801561008c57600080fd5b5061009b6380ac58cd60e01b81565b6040516001600160e01b031990911681526020015b60405180910390f35b3480156100c557600080fd5b5061009b63152a902d60e11b81565b3480156100e057600080fd5b506102d96040805161014081018252600080825260208201819052918101829052606081018290526080810182905260a0810182905260c0810182905260e08101829052610100810182905261012081019190915250600080526003602090815260408051610140810182527f3617319a054d772f909f7c479a2cebe5066e836a939412e32403c99029b92eff5481527f3617319a054d772f909f7c479a2cebe5066e836a939412e32403c99029b92f00546001600160a01b03908116938201939093527f3617319a054d772f909f7c479a2cebe5066e836a939412e32403c99029b92f0154918101919091527f3617319a054d772f909f7c479a2cebe5066e836a939412e32403c99029b92f0254821660608201527f3617319a054d772f909f7c479a2cebe5066e836a939412e32403c99029b92f0354821660808201527f3617319a054d772f909f7c479a2cebe5066e836a939412e32403c99029b92f045490911660a08201527f3617319a054d772f909f7c479a2cebe5066e836a939412e32403c99029b92f055460c08201527f3617319a054d772f909f7c479a2cebe5066e836a939412e32403c99029b92f065460e08201527f3617319a054d772f909f7c479a2cebe5066e836a939412e32403c99029b92f075460ff80821615156101008085019190915290910416151561012082015290565b6040516100b09190611d30565b6102f96102f4366004611b41565b610347565b005b6102f9610309366004611b99565b610687565b6102f961031c366004611c27565b610d03565b6102f961032f366004611bcd565b610f6e565b6102f9610342366004611b41565b61170e565b600260005414156103735760405162461bcd60e51b815260040161036a90611cf9565b60405180910390fd5b6002600090815581815260036020908152604080832060049092529091206008820154610100900460ff16156103eb5760405162461bcd60e51b815260206004820152601a60248201527f4954454d2048415320414c5245414459204245454e20534f4c44000000000000604482015260640161036a565b600882015460ff1661043f5760405162461bcd60e51b815260206004820152601760248201527f4954454d204953204e4f5420464f522041554354494f4e000000000000000000604482015260640161036a565b428160020154106104925760405162461bcd60e51b815260206004820152601960248201527f41554354494f4e20484153204e4f542059455420454e44454400000000000000604482015260640161036a565b600482015460038301546001600160a01b03908116911614156104f257600182015481546040516001600160a01b039092169181156108fc0291906000818181858888f193505050501580156104ec573d6000803e3d6000fd5b50610590565b600482015460078301546040516001600160a01b039092169181156108fc0291906000818181858888f19350505050158015610532573d6000803e3d6000fd5b506004820154600783015482546001600160a01b03909216916108fc9160649161055c9190611e0b565b6105669190611deb565b6040518115909202916000818181858888f1935050505015801561058e573d6000803e3d6000fd5b505b80541561066d57600480830154600183015460028501546040516323b872dd60e01b81526001600160a01b03808a16956323b872dd956105d7959083169492169201611c78565b600060405180830381600087803b1580156105f157600080fd5b505af1158015610605573d6000803e3d6000fd5b505050600583015482546040516001600160a01b03909216925080156108fc02916000818181858888f19350505050158015610645573d6000803e3d6000fd5b5060018101546005830180546001600160a01b0319166001600160a01b039092169190911790555b50600801805461ff00191661010017905550506001600055565b600260005414156106aa5760405162461bcd60e51b815260040161036a90611cf9565b60026000556106c0836380ac58cd60e01b6119dd565b61070c5760405162461bcd60e51b815260206004820152601b60248201527f45524337323120434f4e54524143542049532052455155495245440000000000604482015260640161036a565b6040516331a9108f60e11b81526004810183905233906001600160a01b03851690636352211e9060240160206040518083038186803b15801561074e57600080fd5b505afa158015610762573d6000803e3d6000fd5b505050506040513d601f19601f820116820180604052508101906107869190611b1e565b6001600160a01b0316146107e85760405162461bcd60e51b8152602060048201526024808201527f4d53472e53454e444552204d55535420424520544845204f574e4552204f46206044820152634954454d60e01b606482015260840161036a565b6000811161082f5760405162461bcd60e51b815260206004820152601460248201527350524943452043414e4e4f54204245205a45524f60601b604482015260640161036a565b6040516331a9108f60e11b8152600481018390526001600160a01b0384169063e985e9c5908290636352211e9060240160206040518083038186803b15801561087757600080fd5b505afa15801561088b573d6000803e3d6000fd5b505050506040513d601f19601f820116820180604052508101906108af9190611b1e565b6040516001600160e01b031960e084901b1681526001600160a01b03909116600482015230602482015260440160206040518083038186803b1580156108f457600080fd5b505afa158015610908573d6000803e3d6000fd5b505050506040513d601f19601f8201168201806040525081019061092c9190611c07565b6109485760405162461bcd60e51b815260040161036a90611c9c565b610956600180546001019055565b600061096160015490565b90506109748463152a902d60e11b6119dd565b15610bac5760405163152a902d60e11b8152600481018490526024810183905260009081906001600160a01b03871690632a55205a90604401604080518083038186803b1580156109c457600080fd5b505afa1580156109d8573d6000803e3d6000fd5b505050506040513d601f19601f820116820180604052508101906109fc9190611b6c565b91509150604051806101400160405280848152602001876001600160a01b03168152602001868152602001836001600160a01b03168152602001336001600160a01b0316815260200160006001600160a01b0316815260200185815260200182815260200160001515815260200160001515815250600360008581526020019081526020016000206000820151816000015560208201518160010160006101000a8154816001600160a01b0302191690836001600160a01b031602179055506040820151816002015560608201518160030160006101000a8154816001600160a01b0302191690836001600160a01b0316021790555060808201518160040160006101000a8154816001600160a01b0302191690836001600160a01b0316021790555060a08201518160050160006101000a8154816001600160a01b0302191690836001600160a01b0316021790555060c0820151816006015560e082015181600701556101008201518160080160006101000a81548160ff0219169083151502179055506101208201518160080160016101000a81548160ff0219169083151502179055509050505050610cb0565b60408051610140810182528281526001600160a01b038087166020808401918252838501888152336060860181815260808701918252600060a0880181815260c089018c815260e08a01838152610100808c018581526101208d018681528f875260039a8b90529d9095209b518c55985160018c018054918c166001600160a01b0319928316179055965160028c01559351968a018054978a16978716979097179096559251600489018054918916918616919091179055915160058801805491909716931692909217909455905160068501555160078401559051600890920180549351151590910261ff00199215159290921661ffff19909316929092171790555b82846001600160a01b0316827f2ad024d53a0dc50c130967f8d4941927ee087ea31394cebb2b9599d3706c9c0033600087604051610cf093929190611c78565b60405180910390a4505060016000555050565b60026000541415610d265760405162461bcd60e51b815260040161036a90611cf9565b6002600090815581815260036020908152604080832060049092529091206008820154610100900460ff1615610d9e5760405162461bcd60e51b815260206004820152601a60248201527f4954454d2048415320414c5245414459204245454e20534f4c44000000000000604482015260640161036a565b600882015460ff16610de55760405162461bcd60e51b815260206004820152601060248201526f4e4f5420464f522041554354494f4e2160801b604482015260640161036a565b42816002015411610e2d5760405162461bcd60e51b815260206004820152601260248201527141554354494f4e2048415320454e4445442160701b604482015260640161036a565b81600601543411610e805760405162461bcd60e51b815260206004820152601760248201527f42454c4f5720544845204d494e494d554d205052494345000000000000000000604482015260640161036a565b80543411610ed05760405162461bcd60e51b815260206004820152601a60248201527f4c4f574552205448414e20544845204849474845535420424944000000000000604482015260640161036a565b600181015481546040516001600160a01b039092169181156108fc0291906000818181858888f19350505050158015610f0d573d6000803e3d6000fd5b506001810180546001600160a01b031916339081179091553480835560405185917f15b8c46b3adaaaed6a15b987e48c55b5004e791f99bd3864378d38d4f355008f91610f5c91815260200190565b60405180910390a35050600160005550565b60026000541415610f915760405162461bcd60e51b815260040161036a90611cf9565b600260005581610fda5760405162461bcd60e51b815260206004820152601460248201527350524943452043414e4e4f54204245205a45524f60601b604482015260640161036a565b600081116110215760405162461bcd60e51b8152602060048201526014602482015273494e56414c49442041554354494f4e2054494d4560601b604482015260640161036a565b611032846380ac58cd60e01b6119dd565b61107e5760405162461bcd60e51b815260206004820152601a60248201527f434f4e5452414354204e45454420544f20424520455243373231000000000000604482015260640161036a565b6040516331a9108f60e11b81526004810184905233906001600160a01b03861690636352211e9060240160206040518083038186803b1580156110c057600080fd5b505afa1580156110d4573d6000803e3d6000fd5b505050506040513d601f19601f820116820180604052508101906110f89190611b1e565b6001600160a01b03161461113e5760405162461bcd60e51b815260206004820152600d60248201526c2727aa102a24229027aba722a960991b604482015260640161036a565b6040516331a9108f60e11b8152600481018490526001600160a01b0385169063e985e9c5908290636352211e9060240160206040518083038186803b15801561118657600080fd5b505afa15801561119a573d6000803e3d6000fd5b505050506040513d601f19601f820116820180604052508101906111be9190611b1e565b6040516001600160e01b031960e084901b1681526001600160a01b03909116600482015230602482015260440160206040518083038186803b15801561120357600080fd5b505afa158015611217573d6000803e3d6000fd5b505050506040513d601f19601f8201168201806040525081019061123b9190611c07565b6112575760405162461bcd60e51b815260040161036a90611c9c565b611265600180546001019055565b600061127060015490565b90506112838563152a902d60e11b6119dd565b156114bb5760405163152a902d60e11b8152600481018590526024810184905260009081906001600160a01b03881690632a55205a90604401604080518083038186803b1580156112d357600080fd5b505afa1580156112e7573d6000803e3d6000fd5b505050506040513d601f19601f8201168201806040525081019061130b9190611b6c565b91509150604051806101400160405280848152602001886001600160a01b03168152602001878152602001836001600160a01b03168152602001336001600160a01b0316815260200160006001600160a01b0316815260200186815260200182815260200160011515815260200160001515815250600360008581526020019081526020016000206000820151816000015560208201518160010160006101000a8154816001600160a01b0302191690836001600160a01b031602179055506040820151816002015560608201518160030160006101000a8154816001600160a01b0302191690836001600160a01b0316021790555060808201518160040160006101000a8154816001600160a01b0302191690836001600160a01b0316021790555060a08201518160050160006101000a8154816001600160a01b0302191690836001600160a01b0316021790555060c0820151816006015560e082015181600701556101008201518160080160006101000a81548160ff0219169083151502179055506101208201518160080160016101000a81548160ff021916908315150217905550905050505061166a565b60003390506000604051806101400160405280848152602001886001600160a01b03168152602001878152602001836001600160a01b03168152602001336001600160a01b0316815260200160006001600160a01b0316815260200186815260200182815260200160011515815260200160001515815250600360008581526020019081526020016000206000820151816000015560208201518160010160006101000a8154816001600160a01b0302191690836001600160a01b031602179055506040820151816002015560608201518160030160006101000a8154816001600160a01b0302191690836001600160a01b0316021790555060808201518160040160006101000a8154816001600160a01b0302191690836001600160a01b0316021790555060a08201518160050160006101000a8154816001600160a01b0302191690836001600160a01b0316021790555060c0820151816006015560e082015181600701556101008201518160080160006101000a81548160ff0219169083151502179055506101208201518160080160016101000a81548160ff02191690831515021790555090505050505b6040805160608101825260008082526020808301828152838501878152868452600490925284832093518455516001840180546001600160a01b0319166001600160a01b039283161790559051600290930192909255915186929188169184917ff2f36c94d729281d638d0941ff6c48257dd3cab5de746de6ab9e040e975c8ad3916116fa913391908a90611c78565b60405180910390a450506001600055505050565b600260005414156117315760405162461bcd60e51b815260040161036a90611cf9565b60026000908155818152600360205260409020600881015460ff16156117995760405162461bcd60e51b815260206004820152601760248201527f54484953204954454d204953204f4e2041554354494f4e000000000000000000604482015260640161036a565b806006015434146117ec5760405162461bcd60e51b815260206004820152601a60248201527f4e4f542053414d452050524943452057495448204c4953544544000000000000604482015260640161036a565b6008810154610100900460ff161561183a5760405162461bcd60e51b81526020600482015260116024820152701255115348105314915051164814d3d311607a1b604482015260640161036a565b600481015460038201546001600160a01b03908116911614156118985760048101546040516001600160a01b03909116903480156108fc02916000818181858888f19350505050158015611892573d6000803e3d6000fd5b50611934565b600481015460078201546040516001600160a01b039092169181156108fc0291906000818181858888f193505050501580156118d8573d6000803e3d6000fd5b50600481015460078201546001600160a01b03909116906108fc906064906119009034611e0b565b61190a9190611deb565b6040518115909202916000818181858888f19350505050158015611932573d6000803e3d6000fd5b505b60048082015460028301546040516323b872dd60e01b81526001600160a01b03808816946323b872dd9461196e9492169233929101611c78565b600060405180830381600087803b15801561198857600080fd5b505af115801561199c573d6000803e3d6000fd5b5050506005820180546001600160a01b031916331790555060088101805461ff0019166101001790556119d3600280546001019055565b5050600160005550565b60006119e883611a02565b80156119f957506119f98383611a35565b90505b92915050565b6000611a15826301ffc9a760e01b611a35565b80156119fc5750611a2e826001600160e01b0319611a35565b1592915050565b604080516001600160e01b0319831660248083019190915282518083039091018152604490910182526020810180516001600160e01b03166301ffc9a760e01b179052905160009190829081906001600160a01b0387169061753090611a9c908690611c3f565b6000604051808303818686fa925050503d8060008114611ad8576040519150601f19603f3d011682016040523d82523d6000602084013e611add565b606091505b5091509150602081511015611af857600093505050506119fc565b818015611b14575080806020019051810190611b149190611c07565b9695505050505050565b600060208284031215611b2f578081fd5b8151611b3a81611e36565b9392505050565b60008060408385031215611b53578081fd5b8235611b5e81611e36565b946020939093013593505050565b60008060408385031215611b7e578182fd5b8251611b8981611e36565b6020939093015192949293505050565b600080600060608486031215611bad578081fd5b8335611bb881611e36565b95602085013595506040909401359392505050565b60008060008060808587031215611be2578081fd5b8435611bed81611e36565b966020860135965060408601359560600135945092505050565b600060208284031215611c18578081fd5b81518015158114611b3a578182fd5b600060208284031215611c38578081fd5b5035919050565b60008251815b81811015611c5f5760208186018101518583015201611c45565b81811115611c6d5782828501525b509190910192915050565b6001600160a01b039384168152919092166020820152604081019190915260600190565b6020808252603e908201527f4552433732313a20617070726f76652063616c6c6572206973206e6f7420746f60408201527f6b656e206f776e6572206e6f7220617070726f76656420666f7220616c6c0000606082015260800190565b6020808252601f908201527f5265656e7472616e637947756172643a207265656e7472616e742063616c6c00604082015260600190565b81518152602080830151610140830191611d54908401826001600160a01b03169052565b50604083015160408301526060830151611d7960608401826001600160a01b03169052565b506080830151611d9460808401826001600160a01b03169052565b5060a0830151611daf60a08401826001600160a01b03169052565b5060c083015160c083015260e083015160e083015261010080840151611dd88285018215159052565b5050610120928301511515919092015290565b600082611e0657634e487b7160e01b81526012600452602481fd5b500490565b6000816000190483118215151615611e3157634e487b7160e01b81526011600452602481fd5b500290565b6001600160a01b0381168114611e4b57600080fd5b5056fea26469706673582212203d83b3b573132bec23140289df30c103af059209a98ad36ee3ade117440bbc6a64736f6c63430008040033",
  "linkReferences": {},
  "deployedLinkReferences": {}
}